:100000000C9463000C948B000C948B000C948B006C
:100010000C948B000C948B000C948B000C94830537
:100020000C948B000C948B000C948B000C948B0024
:100030000C948B000C948B000C948B000C948B0014
:100040000C9437060C948B000C9405060C94DF0579
:100050000C948B000C948B000C948B000C948B00F4
:100060000C948B000C948B000000000024002700EF
:100070002A0000000008000201000003040700003D
:1000800000000000000000000000230026002900FE
:10009000010204081020408001020408102001021F
:1000A0000408102000000000250028002B00040494
:1000B0000404040404040202020202020303030310
:1000C00003030200C60611241FBECFEFD8E0DEBF37
:1000D000CDBF11E0A0E0B1E0E0E0F4E102C00590A6
:1000E0000D92AA34B107D9F722E0AAE4B1E001C029
:1000F0001D92AB32B207E1F710E0C3E6D0E004C0D6
:100100002197FE010E94F309C236D107C9F70E9468
:1001100011070C94FE090C940000FC01918D828D56
:10012000981761F0828DDF01A80FB11D5D968C914B
:10013000928D9F5F9F73928F90E008958FEF9FEF56
:100140000895FC01918D828D981731F0828DE80F12
:10015000F11D858D90E008958FEF9FEF0895FC01CC
:10016000918D228D892F90E0805C9F4F821B910999
:100170008F7399270895FC01848DDF01A80FB11DAD
:10018000A35ABF4F2C91848D90E001968F739927CD
:10019000848FA689B7892C93A089B1898C918064BA
:1001A0008C93938D848D981306C00288F389E02D7B
:1001B00080818F7D80830895EF92FF920F931F932C
:1001C000CF93DF93EC0181E0888F9B8D8C8D98130A
:1001D00005C0E889F989808185FD24C0F62E0B8D44
:1001E00010E00F5F1F4F0F731127E02E8C8DE81268
:1001F0000CC00FB607FCFACFE889F989808185FF2A
:10020000F5CFCE010E94BB00F1CF8B8DFE01E80F30
:10021000F11DE35AFF4FF0820B8FEA89FB89808141
:10022000806207C0EE89FF896083E889F98980814F
:100230008064808381E090E0DF91CF911F910F91E6
:10024000FF90EF900895CF93DF93EC01888D882382
:10025000C9F0EA89FB89808185FD05C0A889B98933
:100260008C9186FD0FC00FB607FCF5CF808185FF0E
:10027000F2CFA889B9898C9185FFEDCFCE010E947C
:10028000BB00E7CFDF91CF91089586E791E00E9410
:10029000AF0021E0892B09F420E0822F089580E04F
:1002A00090E0892B29F00E94450181110C940000F7
:1002B0000895CF92DF92EF92FF920F931F93CF9307
:1002C000DF936C017A018B01C0E0D0E0CE15DF0531
:1002D00089F0D8016D918D01D601ED91FC910190CD
:1002E000F081E02DC6010995892B11F47E0102C031
:1002F0002196ECCFC701DF91CF911F910F91FF9015
:10030000EF90DF90CF90089590E0FC01EE58FF4F02
:100310003491FC01E057FF4F2491FC01E255FF4F5F
:10032000E491EE2309F43BC0332339F1333091F0EB
:1003300038F43130A9F0323001F584B58F7D12C028
:10034000373091F03830A1F03430B9F4809180002A
:100350008F7D03C0809180008F77809380000DC0D7
:1003600084B58F7784BD09C08091B0008F7703C0BA
:100370008091B0008F7D8093B000F0E0EE0FFF1F02
:10038000EC55FF4FA591B4918FB7F894EC916111A2
:1003900003C020952E2301C02E2B2C938FBF0895D0
:1003A00090910001981324C0E2ECF0E0E4919FEFFB
:1003B00090930001E130B9F098F0E230C9F49091E7
:1003C00070009D7F9093700091E09093B0009091A9
:1003D000B100987F94609093B1001092B30008C070
:1003E00010926E0005C090916F009D7F90936F00FA
:1003F00060E00C948401CF93DF9390E0FC01E05720
:10040000FF4F2491FC01E255FF4F8491882361F155
:1004100090E0880F991FFC01E859FF4FC591D491D6
:10042000FC01EC55FF4FA591B491611109C09FB734
:10043000F8948881209582238883EC912E230BC029
:10044000623061F49FB7F8943881822F80958323BE
:100450008883EC912E2B2C939FBF06C08FB7F89406
:10046000E8812E2B28838FBFDF91CF910895CF9302
:1004700080910001873021F08F3F09F0D7C004C080
:10048000E2ECF0E0C49174C087E080930001E2ECFC
:10049000F0E0E491EF3F09F4C9C0E13011F1E2303E
:1004A00009F442C0E11163C014BC15BC84B582607C
:1004B00084BD85B5816085BDE5EBF0E0E491F0E0B9
:1004C000EE0FFF1FEC55FF4F8591949190936901BA
:1004D00080936801E7E9F0E0E491E0936701C0E010
:1004E00049C0109280001092810080918100886044
:1004F0008093810080918100816080938100E5EB91
:10050000F0E0E491F0E0EE0FFF1FEC55FF4F859116
:1005100094919093660180936501E7E9F0E0E4919E
:10052000E0936401C1E026C01092B0001092B100C7
:100530008091B00082608093B0008091B1008160B2
:100540008093B100E5EBF0E0E491F0E0EE0FFF1FE7
:10055000EC55FF4F859194919093630180936201D4
:10056000E7E9F0E0E491E0936101C2E003C0CE2F3F
:10057000C7FD5CC061E087E00E94FB01CC2309F469
:100580003FC0C230A9F1C130E9F480918100887F79
:100590008160809381008FE99FE090938900809330
:1005A00088008FEF9FEFDC0180936E0190936F01C5
:1005B000A0937001B093710180916F00826080936D
:1005C0006F0034C0C23091F58FE98093B3008FEF94
:1005D0009FEFDC0180936A0190936B01A0936C0103
:1005E000B0936D01809170008260809370001EC096
:1005F0008091B100887F83608093B1008CE7E5CF64
:1006000085B5887F836085BD8DE387BD8FEF9FEFC4
:10061000DC018093720190937301A0937401B093F5
:10062000750180916E00826080936E00CF91089575
:100630003FB7F89480914F0190915001A0915101E2
:10064000B091520126B5A89B05C02F3F19F0019625
:10065000A11DB11D3FBFBA2FA92F982F8827820F48
:10066000911DA11DB11DBC01CD0142E0660F771F98
:10067000881F991F4A95D1F708958F929F92AF9244
:10068000BF92CF92DF92EF92FF926B017C010E94AA
:1006900018034B015C01C114D104E104F104F1F031
:1006A0000E941803DC01CB0188199909AA09BB092A
:1006B000883E9340A105B10570F321E0C21AD1082C
:1006C000E108F10888EE880E83E0981EA11CB11C99
:1006D000C114D104E104F10419F7DDCFFF90EF90CC
:1006E000DF90CF90BF90AF909F908F900895CF9361
:1006F000DF93EC0160E08E810E94840161E08E81D5
:100700000E94840160E08E810E9484018BE891E068
:100710000197F1F7DF91CF910895CF92DF92EF9299
:10072000FF920F931F93CF93DF937C016C0187E0BF
:10073000C80ED11CC0E0D0E0062F10E0B8010C2E8E
:1007400002C0759567950A94E2F76170F601819190
:100750006F010E9484012196C430D10579F7C70149
:10076000DF91CF911F910F91FF90EF90DF90CF908D
:100770000C947703CF92DF92EF92FF920F931F9327
:10078000CF93DF93EC01F62E642F8C810E948401BD
:100790008D818F3F19F060E00E9484018F850F2DBD
:1007A00010E084FF25C06E0187E0C80ED11CE12C4B
:1007B000F12CB8010E2C02C0759567950A94E2F7EA
:1007C0006170F60181916F010E948401FFEFEF1AC1
:1007D000FF0A88E0E816F10461F7CE01DF91CF91BE
:1007E0001F910F91FF90EF90DF90CF900C947703C3
:1007F000B80184E0759567958A95E1F7CE010E946E
:100800008D036F2DCE01DF91CF911F910F91FF903E
:10081000EF90DF90CF900C948D0341E00E94BA03DB
:1008200081E090E0089540E00C94BA0361E00E94FA
:1008300013048BE39FE10197F1F70895EF92FF9284
:100840000F931F93CF93DF93EC01623018F08F85E5
:1008500088608F876B8B1C8A80E48D8B80E18E8B08
:1008600080E58F8B61E08C810E94FB018D818F3F41
:1008700019F061E00E94FB0161E08E810E94FB01A2
:100880007E0187E0E80EF11C00E010E08F8584FD1A
:1008900003C084E090E002C088E090E008171907E8
:1008A0004CF461E0F70181917F010E94FB010F5F31
:1008B0001F4FECCF8BE39DE00197F1F760E08C8157
:1008C0000E94840160E08E810E9484018D818F3FAF
:1008D00019F060E00E9484016F8564FD1DC063E033
:1008E000CE010E948D030BE416E4C8010197F1F7D5
:1008F00063E0CE010E948D03C8010197F1F763E028
:10090000CE010E948D0383E592E00197F1F762E04A
:10091000CE010E948D0316C06062CE010E941304B6
:100920008BE496E40197F1F76F856062CE010E9437
:10093000130483E592E00197F1F76F856062CE01C1
:100940000E9413046F856062CE010E94130484E04C
:10095000888B6CE0CE010E941304CE010E94160425
:1009600082E0898B66E0CE01DF91CF911F910F91DC
:10097000FF90EF900C9413040F931F9390E0FC01F1
:10098000E057FF4F6491FC01E255FF4FE491F0E026
:10099000EE0FFF1FEA57FF4F8591949100E412E498
:1009A0002FE030E0462F0E94810661157105810518
:1009B000910549F0DC01CB010196A11DB11DBC01DF
:1009C000CD019F7003C060E070E0CB011F910F91DB
:1009D00008950E94F9096115710579F0FB010190F4
:1009E0000020E9F73197AF01461B570BDC01ED9171
:1009F000FC910280F381E02D099480E090E008955D
:100A00004F925F926F927F928F929F92AF92BF921E
:100A1000CF92DF92EF92FF920F931F93CF93DF93CA
:100A2000CDB7DEB7A1970FB6F894DEBF0FBECDBF2E
:100A30008C016B01770FEE08FF08F7FE2FC0DC0179
:100A4000ED91FC910190F081E02D6DE209955C0142
:100A500022273327A9012C193D094E095F0919A244
:100A6000FE01B1967F019AE0492E512C612C712C28
:100A7000CA01B901A30192010E94B209605DD701C8
:100A80006E937D01211531054105510589F7BD01A1
:100A9000C8010E94EB048A0D9B1D1EC0A701960190
:100AA00019A2FE01B1967F018AE0882E912CA12C1B
:100AB000B12CCA01B901A50194010E94B209605D7F
:100AC000D7016E937D01211531054105510589F747
:100AD000BD01C8010E94EB04A1960FB6F894DEBFD9
:100AE0000FBECDBFDF91CF911F910F91FF90EF907F
:100AF000DF90CF90BF90AF909F908F907F906F903E
:100B00005F904F9008951F920F920FB60F9211248D
:100B10002F933F934F935F936F937F938F939F9305
:100B2000AF93BF93EF93FF9380916A0190916B0114
:100B3000A0916C01B0916D01892B8A2B8B2B51F107
:100B400080916101E0916201F091630190818927B8
:100B5000808380916A0190916B01A0916C01B091AA
:100B60006D01181619061A061B06C4F480916A0155
:100B700090916B01A0916C01B0916D010197A10959
:100B8000B10980936A0190936B01A0936C01B093BB
:100B90006D0104C0809100010E94D001FF91EF918E
:100BA000BF91AF919F918F917F916F915F914F9185
:100BB0003F912F910F900FBE0F901F9018951F928D
:100BC0000F920FB60F9211242F933F934F935F9381
:100BD0006F937F938F939F93AF93BF93EF93FF9305
:100BE00086E791E00E94BB00FF91EF91BF91AF912A
:100BF0009F918F917F916F915F914F913F912F9135
:100C00000F900FBE0F901F9018951F920F920FB666
:100C10000F9211242F938F939F93EF93FF93E09163
:100C20008601F09187018081E0918C01F0918D0126
:100C300082FD12C0908180918F018F5F8F73209110
:100C40009001821751F0E0918F01F0E0EA58FE4FD9
:100C5000958F80938F0101C08081FF91EF919F91CB
:100C60008F912F910F900FBE0F901F9018951F928C
:100C70000F920FB60F9211242F933F938F939F9350
:100C8000AF93BF9380914B0190914C01A0914D0186
:100C9000B0914E0130914A0123E0230F2D3720F40B
:100CA0000196A11DB11D05C026E8230F0296A11DC6
:100CB000B11D20934A0180934B0190934C01A09366
:100CC0004D01B0934E0180914F0190915001A09140
:100CD0005101B09152010196A11DB11D80934F01A8
:100CE00090935001A0935101B0935201BF91AF91E5
:100CF0009F918F913F912F910F900FBE0F901F905A
:100D00001895CF92DF92EF92FF920F931F93E82FE7
:100D1000F92F05C0015011092109310961F19081B4
:100D200096239417B9F305C001501109210931091F
:100D300011F1908196239413F7CFC12CD12CE12C83
:100D4000F12C0AC08FEFC81AD80AE80AF80A0C1565
:100D50001D052E053F0579F080818623841791F3C8
:100D60006C2D7D2D8E2D9F2D1F910F91FF90EF905B
:100D7000DF90CF90089560E070E080E090E01F91F8
:100D80000F91FF90EF90DF90CF900895E6E7F1E0AC
:100D90001382128288EE93E0A0E0B0E08483958312
:100DA000A683B78385E091E09183808385EC90E012
:100DB0009587848784EC90E09787868780EC90E025
:100DC000918B808B81EC90E0938B828B82EC90E016
:100DD000958B848B86EC90E0978B868B118E128E90
:100DE000138E148EE3E1F2E01382128285E191E02A
:100DF000918380838CE084838FEF85838BE086836F
:100E000085E0878384E0808783E0818782E0828732
:100E10001386148615861686178661E0CF010C941A
:100E20001E04789484B5826084BD84B5816084BDDD
:100E300085B5826085BD85B5816085BD80916E0078
:100E4000816080936E0010928100809181008260A9
:100E500080938100809181008160809381008091E6
:100E600080008160809380008091B10084608093D5
:100E7000B1008091B00081608093B00080917A00D1
:100E8000846080937A0080917A00826080937A00F7
:100E900080917A00816080937A0080917A008068E6
:100EA00080937A001092C10061E086E00E94FB010D
:100EB00060E089E00E94FB0161E08AE00E94FB01A2
:100EC00060E088E00E94FB0161E087E00E94FB0196
:100ED00062E083E192E00E941E0483E192E00E94BE
:100EE0001604CBE9DFE003E210E082E0C82ED12C4B
:100EF000E12CF12C83E192E00E94160461E086E08F
:100F00000E948401CE010197F1F760E086E00E9423
:100F10008401C8010197F1F789E00E94BC04609345
:100F20005D0170935E0180935F0190936001A70162
:100F300096010E94D409CA01B9010E9426092DEC2C
:100F40003CEC48EE51E40E947C080E94EE0870934D
:100F50005C0160935B0161E08AE00E948401CE0144
:100F60000197F1F760E08AE00E948401C8010197CF
:100F7000F1F788E00E94BC04609357017093580118
:100F80008093590190935A01A70196010E94D409B8
:100F9000CA01B9010E9426092DEC3CEC48EE51E44F
:100FA0000E947C080E94EE085B01709356016093DA
:100FB000550164E670E080E090E00E943D0380917E
:100FC0005B0190915C01883092405CF40E94370292
:100FD0008091530190915401019690935401809314
:100FE000530188E0A81682E0B80664F40E94370234
:100FF00080915301909154010197909354018093F3
:10100000530103C087E00E94D00183E192E00E9477
:10101000160469E171E083E192E00E94EB046091C3
:101020005B0170915C0183E192E00E94000568EE33
:1010300073E080E090E00E943D0383E192E00E9433
:10104000160468EE73E080E090E00E943D0363E2E6
:1010500071E083E192E00E94EB0460915501709190
:10106000560183E192E00E9400056EE271E083E1A7
:1010700092E00E94EB04E0912602E23010F4E1508D
:1010800001C0E1E0F0E0ED5EFD4F6489606883E15E
:1010900092E00E94130461E371E083E192E00E9418
:1010A000EB04609153017091540183E192E00E943E
:1010B000000568EE73E080E090E00E943D0360E48C
:1010C00071E086E791E00E94EB0460915B01709112
:1010D0005C0186E791E00E9400056EE271E086E720
:1010E00091E00E94EB0468EE73E080E090E00E94E3
:1010F0003D030E944F01FECE0E9490080C94780997
:101100000E94710958F00E946A0940F029F45F3F7B
:1011100029F00C94610951110C94AC090C946709E5
:101120000E94890968F39923B1F3552391F3951B24
:10113000550BBB27AA2762177307840738F09F5FF8
:101140005F4F220F331F441FAA1FA9F335D00E2E65
:101150003AF0E0E832D091505040E695001CCAF7D2
:101160002BD0FE2F29D0660F771F881FBB1F261795
:1011700037074807AB07B0E809F0BB0B802DBF016C
:10118000FF2793585F4F3AF09E3F510578F00C943B
:1011900061090C94AC095F3FE4F3983ED4F3869563
:1011A00077956795B795F7959F5FC9F7880F911D5C
:1011B0009695879597F90895E1E0660F771F881F48
:1011C000BB1F621773078407BA0720F0621B730BFB
:1011D000840BBA0BEE1F88F7E09508950E94F5087E
:1011E0006894B1110C94AC0908950E94910988F09B
:1011F0009F5798F0B92F9927B751B0F0E1F0660FDB
:10120000771F881F991F1AF0BA95C9F714C0B1301B
:1012100091F00E94AB09B1E008950C94AB09672FDF
:10122000782F8827B85F39F0B93FCCF3869577954A
:101230006795B395D9F73EF4909580957095619533
:101240007F4F8F4F9F4F0895E89409C097FB3EF45E
:1012500090958095709561957F4F8F4F9F4F992303
:10126000A9F0F92F96E9BB279395F6958795779581
:101270006795B795F111F8CFFAF4BB0F11F460FF41
:101280001BC06F5F7F4F8F4F9F4F16C0882311F099
:1012900096E911C0772321F09EE8872F762F05C0AD
:1012A000662371F096E8862F70E060E02AF09A9548
:1012B000660F771F881FDAF7880F9695879597F93D
:1012C000089597F99F6780E870E060E008959FEFC8
:1012D00080EC089500240A941616170618060906CD
:1012E000089500240A94121613061406050608959C
:1012F000092E0394000C11F4882352F0BB0F40F424
:10130000BF2B11F460FF04C06F5F7F4F8F4F9F4F63
:10131000089557FD9058440F551F59F05F3F71F0E5
:101320004795880F97FB991F61F09F3F79F087954C
:101330000895121613061406551FF2CF4695F1DFD5
:1013400008C0161617061806991FF1CF8695710565
:10135000610508940895E894BB2766277727CB0199
:1013600097F90895A1E21A2EAA1BBB1BFD010DC01F
:10137000AA1FBB1FEE1FFF1FA217B307E407F50745
:1013800020F0A21BB30BE40BF50B661F771F881F21
:10139000991F1A9469F760957095809590959B01B7
:1013A000AC01BD01CF010895052E97FB1EF40094FA
:1013B0000E94EB0957FD07D00E94B20907FC03D039
:1013C0004EF40C94EB0950954095309521953F4F84
:1013D0004F4F5F4F089590958095709561957F4F21
:1013E0008F4F9F4F0895EE0FFF1F0590F491E02D52
:1013F000099481E090E0F8940C94FE09F894FFCFF2
:10140000FF00000000DC005901AF008D00A10023A7
:1014100001000000000D04590144495354414E435A
:10142000453A0044495354414E4345313A00636DB7
:10143000006E6F2E206F66206F626A6563743A00DB
:0A14400044495354414E4345000057
:00000001FF
